{
  "_format": "hh-sol-artifact-1",
  "contractName": "AISmartAccountFactory",
  "sourceName": "src/AISmartAccountFactory.sol",
  "abi": [
    {
      "inputs": [
        {
          "internalType": "contract IEntryPoint",
          "name": "_entryPoint",
          "type": "address"
        }
      ],
      "stateMutability": "nonpayable",
      "type": "constructor"
    },
    {
      "inputs": [],
      "name": "Create2EmptyBytecode",
      "type": "error"
    },
    {
      "inputs": [],
      "name": "FailedDeployment",
      "type": "error"
    },
    {
      "inputs": [
        {
          "internalType": "uint256",
          "name": "balance",
          "type": "uint256"
        },
        {
          "internalType": "uint256",
          "name": "needed",
          "type": "uint256"
        }
      ],
      "name": "InsufficientBalance",
      "type": "error"
    },
    {
      "anonymous": false,
      "inputs": [
        {
          "indexed": true,
          "internalType": "address",
          "name": "account",
          "type": "address"
        },
        {
          "indexed": true,
          "internalType": "address",
          "name": "owner",
          "type": "address"
        },
        {
          "indexed": false,
          "internalType": "uint256",
          "name": "salt",
          "type": "uint256"
        }
      ],
      "name": "AccountCreated",
      "type": "event"
    },
    {
      "inputs": [
        {
          "internalType": "address",
          "name": "owner",
          "type": "address"
        },
        {
          "internalType": "uint256",
          "name": "salt",
          "type": "uint256"
        }
      ],
      "name": "createAccount",
      "outputs": [
        {
          "internalType": "address",
          "name": "account",
          "type": "address"
        }
      ],
      "stateMutability": "nonpayable",
      "type": "function"
    },
    {
      "inputs": [],
      "name": "entryPoint",
      "outputs": [
        {
          "internalType": "contract IEntryPoint",
          "name": "",
          "type": "address"
        }
      ],
      "stateMutability": "view",
      "type": "function"
    },
    {
      "inputs": [
        {
          "internalType": "address",
          "name": "owner",
          "type": "address"
        },
        {
          "internalType": "uint256",
          "name": "salt",
          "type": "uint256"
        }
      ],
      "name": "getAddress",
      "outputs": [
        {
          "internalType": "address",
          "name": "account",
          "type": "address"
        }
      ],
      "stateMutability": "view",
      "type": "function"
    }
  ],
  "bytecode": "0x60a0604052348015600f57600080fd5b5060405161199a38038061199a833981016040819052602c91603c565b6001600160a01b0316608052606a565b600060208284031215604d57600080fd5b81516001600160a01b0381168114606357600080fd5b9392505050565b60805161190961009160003960008181608d0152818160d901526101fc01526119096000f3fe608060405234801561001057600080fd5b50600436106100415760003560e01c80635fbfb9cf146100465780638cb84e1814610075578063b0d691fe14610088575b600080fd5b61005961005436600461036a565b6100af565b6040516001600160a01b03909116815260200160405180910390f35b61005961008336600461036a565b6101d2565b6100597f000000000000000000000000000000000000000000000000000000000000000081565b600080604051806020016100c29061035d565b601f1982820381018352601f9091011660408181527f00000000000000000000000000000000000000000000000000000000000000006001600160a01b0390811660208401528716818301528051808303820181526060830190915261012b92916080016103d2565b60408051601f1981840301815291905280516020820120909150839061015290829061027b565b92506001600160a01b0383163b801561016d575050506101cc565b6101796000838561028f565b9350856001600160a01b0316846001600160a01b03167f33310a89c32d8cc00057ad6ef6274d2f8fe22389a992cf89983e09fc84f6cfff876040516101c091815260200190565b60405180910390a35050505b92915050565b600080604051806020016101e59061035d565b601f1982820381018352601f9091011660408181527f00000000000000000000000000000000000000000000000000000000000000006001600160a01b0390811660208401528716818301528051808303820181526060830190915261024e92916080016103d2565b60405160208183030381529060405290506102738360001b828051906020012061027b565b949350505050565b600061028883833061032a565b9392505050565b6000834710156102bf5760405163cf47918160e01b81524760048201526024810185905260440160405180910390fd5b81516000036102e157604051631328927760e21b815260040160405180910390fd5b8282516020840186f590503d151981151615610303576040513d6000823e3d81fd5b6001600160a01b0381166102885760405163b06ebf3d60e01b815260040160405180910390fd5b6000604051836040820152846020820152828152600b8101905060ff8153605590206001600160a01b0316949350505050565b6114ec806103e883390190565b6000806040838503121561037d57600080fd5b82356001600160a01b038116811461039457600080fd5b946020939093013593505050565b6000815160005b818110156103c357602081850181015186830152016103a9565b50600093019283525090919050565b60006102736103e183866103a2565b846103a256fe60a060405234801561001057600080fd5b506040516114ec3803806114ec83398101604081905261002f91610073565b6001600160a01b03918216608052600080546001600160a01b03191691909216179055426003556100ad565b6001600160a01b038116811461007057600080fd5b50565b6000806040838503121561008657600080fd5b82516100918161005b565b60208401519092506100a28161005b565b809150509250929050565b60805161140f6100dd6000396000818161031301528181610a1601528181610b310152610cfb015261140f6000f3fe6080604052600436106101235760003560e01c8063a68fe360116100a0578063b4bafa2111610064578063b4bafa2114610337578063b61d27f61461034c578063ca26c5321461036c578063d087d28814610382578063dbbe447d1461039757600080fd5b8063a68fe36014610284578063a6d5b732146102a4578063a6f9dae1146102c4578063a9bba443146102e4578063b0d691fe1461030457600080fd5b80636b4fab2a116100e75780636b4fab2a146101da5780637dfacd041461020b5780638da5cb5b14610221578063a217712414610259578063a4d318051461026f57600080fd5b806303fd446e1461012f57806319822f7c146101515780633cbedd491461018457806347e1da2a146101a45780635d5f2866146101c457600080fd5b3661012a57005b600080fd5b34801561013b57600080fd5b5061014f61014a366004610fdd565b6103cc565b005b34801561015d57600080fd5b5061017161016c366004611010565b61052c565b6040519081526020015b60405180910390f35b34801561019057600080fd5b5061014f61019f366004611098565b610552565b3480156101b057600080fd5b5061014f6101bf366004611137565b6105a7565b3480156101d057600080fd5b5061017160025481565b3480156101e657600080fd5b506004546101fb90600160a01b900460ff1681565b604051901515815260200161017b565b34801561021757600080fd5b5061017160055481565b34801561022d57600080fd5b50600054610241906001600160a01b031681565b6040516001600160a01b03909116815260200161017b565b34801561026557600080fd5b5061017160035481565b34801561027b57600080fd5b5061014f6106bd565b34801561029057600080fd5b5061014f61029f3660046111dd565b610750565b3480156102b057600080fd5b50600454610241906001600160a01b031681565b3480156102d057600080fd5b5061014f6102df36600461121f565b6107a7565b3480156102f057600080fd5b5061014f6102ff36600461123a565b610849565b34801561031057600080fd5b507f0000000000000000000000000000000000000000000000000000000000000000610241565b34801561034357600080fd5b506101fb6109a0565b34801561035857600080fd5b5061014f610367366004611098565b6109c3565b34801561037857600080fd5b5061017160015481565b34801561038e57600080fd5b50610171610a12565b3480156103a357600080fd5b506103ac610aa6565b60408051948552602085019390935291830152606082015260800161017b565b6000546001600160a01b031633146103f7576040516330cd747160e01b815260040160405180910390fd5b6001600160a01b03831661041e5760405163bebdc75760e01b815260040160405180910390fd5b8160000361043f5760405163e55fb50960e01b815260040160405180910390fd5b6004805460018490556001600160a81b0319166001600160a01b03851617600160a01b1790556104728162015180611269565b61047c9042611280565b60058190556000600255426003556040516001600160a01b038516917f748bf350abb9a0df801f89c4e78cd9f1589c9aa2c24400014d156b7ff21ad574916104cc91868252602082015260400190565b60405180910390a27f7334e583fad80c5ef0be90393ede8adf1ade756b3b59875fbaac036ed1a876a6600083600354620151806105099190611280565b6040805193845260208401929092529082015260600160405180910390a1505050565b6000610536610b26565b6105408484610ba0565b905061054b82610c97565b9392505050565b61055a610cf0565b836001600160a01b03167fe7655669166606767a8f36a37dafcce7e2fd660bc2673b935ce89125f499b71f8484844260405161059994939291906112bc565b60405180910390a250505050565b6105af610cf0565b84811480156105bd57508483145b6106005760405162461bcd60e51b815260206004820152600f60248201526e098cadccee8d040dad2e6dac2e8c6d608b1b60448201526064015b60405180910390fd5b60005b858110156106b4576106ac878783818110610620576106206112e7565b9050602002016020810190610635919061121f565b868684818110610647576106476112e7565b90506020020135858585818110610660576106606112e7565b905060200281019061067291906112fd565b8080601f016020809104026020016040519081016040528093929190818152602001838380828437600092019190915250610d5292505050565b600101610603565b50505050505050565b6000546001600160a01b031633146106e8576040516330cd747160e01b815260040160405180910390fd5b6004805460ff60a01b1916905560408051818152600e818301526d1d5cd95c97da5b9a5d1a585d195960921b6060820152426020820152905133917f9e6ed828a9acda16ab38c7f55ccbe781e9b745384833bc63bffc2489ad82d522919081900360800190a2565b610758610cf0565b6004805460ff60a01b1916905560405133907f9e6ed828a9acda16ab38c7f55ccbe781e9b745384833bc63bffc2489ad82d5229061079b90859085904290611344565b60405180910390a25050565b6000546001600160a01b031633146107d2576040516330cd747160e01b815260040160405180910390fd5b6001600160a01b0381166107f95760405163bebdc75760e01b815260040160405180910390fd5b600080546001600160a01b038381166001600160a01b0319831681178455604051919092169283917fb532073b38c83145e3e5135377a08bf9aab55bc0fd7c1179cd4fb995d2a5159c9190a35050565b610851610cf0565b6003546108619062015180611280565b4210610871576000600255426003555b6000816002546108819190611280565b90506001548111156108c0578060025460015461089e9190611368565b6040516377b326b560e11b8152600481019290925260248201526044016105f7565b60028190556001547f7334e583fad80c5ef0be90393ede8adf1ade756b3b59875fbaac036ed1a876a69082906108f7908290611368565b6003546109079062015180611280565b6040805193845260208401929092529082015260600160405180910390a16001546002541061099c576004805460ff60a01b19169055604080518181526014918101919091527319185a5b1e57db1a5b5a5d17d95e18d95959195960621b606082015242602082015230907f9e6ed828a9acda16ab38c7f55ccbe781e9b745384833bc63bffc2489ad82d5229060800161079b565b5050565b600454600090600160a01b900460ff1680156109be57506005544211155b905090565b6109cb610cf0565b610a0c848484848080601f016020809104026020016040519081016040528093929190818152602001838380828437600092019190915250610d5292505050565b50505050565b60007f0000000000000000000000000000000000000000000000000000000000000000604051631aab3f0d60e11b8152306004820152600060248201526001600160a01b0391909116906335567e1a90604401602060405180830381865afa158015610a82573d6000803e3d6000fd5b505050506040513d601f19601f820116820180604052508101906109be919061137b565b60008060008060035462015180610abd9190611280565b4210610ae357600154600081610ad64262015180611280565b9350935093509350610b20565b600154600254808211610af7576000610b07565b600254600154610b079190611368565b600354610b179062015180611280565b93509350935093505b90919293565b336001600160a01b037f00000000000000000000000000000000000000000000000000000000000000001614610b9e5760405162461bcd60e51b815260206004820152601c60248201527f6163636f756e743a206e6f742066726f6d20456e747279506f696e740000000060448201526064016105f7565b565b7f19457468657265756d205369676e6564204d6573736167653a0a3332000000006000908152601c829052603c81206000610c1f610be26101008701876112fd565b8080601f0160208091040260200160405190810160405280939291908181526020018383808284376000920191909152508693925050610dc29050565b6000549091506001600160a01b0390811690821603610c4357600092505050610c8e565b6004546001600160a01b038281169116148015610c695750600454600160a01b900460ff165b8015610c7757506005544211155b15610c8757600092505050610c8e565b6001925050505b92915050565b50565b8015610c9457604051600090339060001990849084818181858888f193505050503d8060008114610ce4576040519150601f19603f3d011682016040523d82523d6000602084013e610ce9565b606091505b5050505050565b336001600160a01b037f00000000000000000000000000000000000000000000000000000000000000001614801590610d3457506000546001600160a01b03163314155b15610b9e5760405163142888bd60e21b815260040160405180910390fd5b600080846001600160a01b03168484604051610d6e9190611394565b60006040518083038185875af1925050503d8060008114610dab576040519150601f19603f3d011682016040523d82523d6000602084013e610db0565b606091505b509150915081610ce957805160208201fd5b600080600080610dd28686610dec565b925092509250610de28282610e39565b5090949350505050565b60008060008351604103610e265760208401516040850151606086015160001a610e1888828585610ef2565b955095509550505050610e32565b50508151600091506002905b9250925092565b6000826003811115610e4d57610e4d6113c3565b03610e56575050565b6001826003811115610e6a57610e6a6113c3565b03610e885760405163f645eedf60e01b815260040160405180910390fd5b6002826003811115610e9c57610e9c6113c3565b03610ebd5760405163fce698f760e01b8152600481018290526024016105f7565b6003826003811115610ed157610ed16113c3565b0361099c576040516335e2f38360e21b8152600481018290526024016105f7565b600080807f7fffffffffffffffffffffffffffffff5d576e7357a4501ddfe92f46681b20a0841115610f2d5750600091506003905082610fb7565b604080516000808252602082018084528a905260ff891692820192909252606081018790526080810186905260019060a0016020604051602081039080840390855afa158015610f81573d6000803e3d6000fd5b5050604051601f1901519150506001600160a01b038116610fad57506000925060019150829050610fb7565b9250600091508190505b9450945094915050565b80356001600160a01b0381168114610fd857600080fd5b919050565b600080600060608486031215610ff257600080fd5b610ffb84610fc1565b95602085013595506040909401359392505050565b60008060006060848603121561102557600080fd5b833567ffffffffffffffff81111561103c57600080fd5b84016101208187031215610ffb57600080fd5b60008083601f84011261106157600080fd5b50813567ffffffffffffffff81111561107957600080fd5b60208301915083602082850101111561109157600080fd5b9250929050565b600080600080606085870312156110ae57600080fd5b6110b785610fc1565b935060208501359250604085013567ffffffffffffffff8111156110da57600080fd5b6110e68782880161104f565b95989497509550505050565b60008083601f84011261110457600080fd5b50813567ffffffffffffffff81111561111c57600080fd5b6020830191508360208260051b850101111561109157600080fd5b6000806000806000806060878903121561115057600080fd5b863567ffffffffffffffff81111561116757600080fd5b61117389828a016110f2565b909750955050602087013567ffffffffffffffff81111561119357600080fd5b61119f89828a016110f2565b909550935050604087013567ffffffffffffffff8111156111bf57600080fd5b6111cb89828a016110f2565b979a9699509497509295939492505050565b600080602083850312156111f057600080fd5b823567ffffffffffffffff81111561120757600080fd5b6112138582860161104f565b90969095509350505050565b60006020828403121561123157600080fd5b61054b82610fc1565b60006020828403121561124c57600080fd5b5035919050565b634e487b7160e01b600052601160045260246000fd5b8082028115828204841417610c8e57610c8e611253565b80820180821115610c8e57610c8e611253565b81835281816020850137506000828201602090810191909152601f909101601f19169091010190565b8481526060602082015260006112d6606083018587611293565b905082604083015295945050505050565b634e487b7160e01b600052603260045260246000fd5b6000808335601e1984360301811261131457600080fd5b83018035915067ffffffffffffffff82111561132f57600080fd5b60200191503681900382131561109157600080fd5b604081526000611358604083018587611293565b9050826020830152949350505050565b81810381811115610c8e57610c8e611253565b60006020828403121561138d57600080fd5b5051919050565b6000825160005b818110156113b5576020818601810151858301520161139b565b506000920191825250919050565b634e487b7160e01b600052602160045260246000fdfea264697066735822122095390f76e82401ee1fd9d7e42ce15d708dc518c683aa7c9008fd1421c8ecf92f64736f6c634300081c0033a2646970667358221220a8d49143c202aa78519a1252474eb93973c7ec9607bf73bd588ea30312e10fab64736f6c634300081c0033",
  "linkReferences": {},
  "deployedLinkReferences": {}
}